{
  "contractName": "InputCalc",
  "abi": [
    {
      "inputs": [],
      "stateMutability": "nonpayable",
      "type": "constructor"
    },
    {
      "anonymous": false,
      "inputs": [
        {
          "indexed": false,
          "internalType": "int256",
          "name": "result",
          "type": "int256"
        }
      ],
      "name": "Result",
      "type": "event"
    },
    {
      "inputs": [],
      "name": "getResult",
      "outputs": [
        {
          "internalType": "int256",
          "name": "",
          "type": "int256"
        }
      ],
      "stateMutability": "view",
      "type": "function",
      "constant": true
    },
    {
      "inputs": [
        {
          "internalType": "int256",
          "name": "_input",
          "type": "int256"
        }
      ],
      "name": "add",
      "outputs": [],
      "stateMutability": "nonpayable",
      "type": "function"
    },
    {
      "inputs": [
        {
          "internalType": "int256",
          "name": "_input",
          "type": "int256"
        }
      ],
      "name": "minus",
      "outputs": [],
      "stateMutability": "nonpayable",
      "type": "function"
    },
    {
      "inputs": [
        {
          "internalType": "int256",
          "name": "_input",
          "type": "int256"
        }
      ],
      "name": "multiply",
      "outputs": [],
      "stateMutability": "nonpayable",
      "type": "function"
    },
    {
      "inputs": [
        {
          "internalType": "int256",
          "name": "_input",
          "type": "int256"
        }
      ],
      "name": "division",
      "outputs": [],
      "stateMutability": "nonpayable",
      "type": "function"
    }
  ],
  "bytecode": "0x608060405234801561001057600080fd5b50600080819055506104d2806100276000396000f3fe608060405234801561001057600080fd5b50600436106100575760003560e01c80631df4f1441461005c5780636c398bb61461007857806387db03b714610094578063d5f716fe146100b0578063de292789146100cc575b600080fd5b6100766004803603810190610071919061027e565b6100ea565b005b610092600480360381019061008d919061027e565b61013e565b005b6100ae60048036038101906100a9919061027e565b610192565b005b6100ca60048036038101906100c5919061027e565b6101e6565b005b6100d461023a565b6040516100e191906102ba565b60405180910390f35b806000808282546100fb9190610304565b925050819055507fcf2df36f3b8930c943343097fc03d8dbfc79edcb1c1b6dc5a599995f3a25494b60005460405161013391906102ba565b60405180910390a150565b8060008082825461014f919061037c565b925050819055507fcf2df36f3b8930c943343097fc03d8dbfc79edcb1c1b6dc5a599995f3a25494b60005460405161018791906102ba565b60405180910390a150565b806000808282546101a391906103bf565b925050819055507fcf2df36f3b8930c943343097fc03d8dbfc79edcb1c1b6dc5a599995f3a25494b6000546040516101db91906102ba565b60405180910390a150565b806000808282546101f79190610432565b925050819055507fcf2df36f3b8930c943343097fc03d8dbfc79edcb1c1b6dc5a599995f3a25494b60005460405161022f91906102ba565b60405180910390a150565b60008054905090565b600080fd5b6000819050919050565b61025b81610248565b811461026657600080fd5b50565b60008135905061027881610252565b92915050565b60006020828403121561029457610293610243565b5b60006102a284828501610269565b91505092915050565b6102b481610248565b82525050565b60006020820190506102cf60008301846102ab565b92915050565b7f4e487b7100000000000000000000000000000000000000000000000000000000600052601160045260246000fd5b600061030f82610248565b915061031a83610248565b925082820261032881610248565b91507f800000000000000000000000000000000000000000000000000000000000000084146000841216156103605761035f6102d5565b5b8282058414831517610375576103746102d5565b5b5092915050565b600061038782610248565b915061039283610248565b92508282039050818112600084121682821360008512151617156103b9576103b86102d5565b5b92915050565b60006103ca82610248565b91506103d583610248565b9250828201905082811215600083121683821260008412151617156103fd576103fc6102d5565b5b92915050565b7f4e487b7100000000000000000000000000000000000000000000000000000000600052601260045260246000fd5b600061043d82610248565b915061044883610248565b92508261045857610457610403565b5b600160000383147f800000000000000000000000000000000000000000000000000000000000000083141615610491576104906102d5565b5b82820590509291505056fea264697066735822122080743e57b1808c655964dc34b65162a9210d228d2763d2e3cfeaa3dd12be6d5f64736f6c63430008130033",
  "immutableReferences": {},
  "source": "// SPDX-License-Identifier: MIT\r\npragma solidity ^0.8.18;\r\n\r\ncontract InputCalc{\r\n    int private result;\r\n\r\n    event Result(int result);\r\n\r\n    constructor(){\r\n        result = 0;\r\n    }\r\n\r\n    function getResult() public view returns (int){ \r\n        return result;\r\n    }   \r\n   function add(int _input) public {\r\n    result += _input;\r\n    emit Result(result);\r\n  }\r\n\r\n  function minus(int _input) public {\r\n    result -= _input;\r\n    emit Result(result);\r\n  }\r\n   function multiply(int _input) public {\r\n    result *= _input;\r\n    emit Result(result);\r\n  }\r\n\r\n  function division(int _input) public {\r\n    result /= _input;\r\n    emit Result(result);\r\n  }\r\n}",
  "sourcePath": "C:\\Users\\ghkdw\\OneDrive\\\\GitHub\\ForPractice\\BlockChain7\\230303\\back\\contracts\\InputCalc.sol",
  "compiler": {
    "name": "solc",
    "version": "0.8.19+commit.7dd6d404.Emscripten.clang"
  },
  "schemaVersion": "3.4.13",
  "updatedAt": "2023-03-03T06:31:44.522Z",
  "networkType": "ethereum",
  "devdoc": {
    "kind": "dev",
    "methods": {},
    "version": 1
  },
  "userdoc": {
    "kind": "user",
    "methods": {},
    "version": 1
  }
}