{
  "contractName": "TestToken",
  "abi": [
    {
      "inputs": [
        {
          "internalType": "string",
          "name": "_symbol",
          "type": "string"
        }
      ],
      "stateMutability": "nonpayable",
      "type": "constructor"
    },
    {
      "inputs": [
        {
          "internalType": "address",
          "name": "",
          "type": "address"
        }
      ],
      "name": "balances",
      "outputs": [
        {
          "internalType": "uint256",
          "name": "",
          "type": "uint256"
        }
      ],
      "stateMutability": "view",
      "type": "function",
      "constant": true
    },
    {
      "inputs": [],
      "name": "decimals",
      "outputs": [
        {
          "internalType": "uint8",
          "name": "",
          "type": "uint8"
        }
      ],
      "stateMutability": "view",
      "type": "function",
      "constant": true
    },
    {
      "inputs": [],
      "name": "name",
      "outputs": [
        {
          "internalType": "string",
          "name": "",
          "type": "string"
        }
      ],
      "stateMutability": "view",
      "type": "function",
      "constant": true
    },
    {
      "inputs": [],
      "name": "symbol",
      "outputs": [
        {
          "internalType": "string",
          "name": "",
          "type": "string"
        }
      ],
      "stateMutability": "view",
      "type": "function",
      "constant": true
    },
    {
      "inputs": [],
      "name": "totalSupply",
      "outputs": [
        {
          "internalType": "uint256",
          "name": "",
          "type": "uint256"
        }
      ],
      "stateMutability": "view",
      "type": "function",
      "constant": true
    },
    {
      "inputs": [
        {
          "internalType": "address",
          "name": "_owner",
          "type": "address"
        }
      ],
      "name": "balanceOf",
      "outputs": [
        {
          "internalType": "uint256",
          "name": "balance",
          "type": "uint256"
        }
      ],
      "stateMutability": "view",
      "type": "function",
      "constant": true
    },
    {
      "inputs": [
        {
          "internalType": "address",
          "name": "_to",
          "type": "address"
        },
        {
          "internalType": "uint256",
          "name": "_value",
          "type": "uint256"
        }
      ],
      "name": "transfer",
      "outputs": [
        {
          "internalType": "bool",
          "name": "success",
          "type": "bool"
        }
      ],
      "stateMutability": "nonpayable",
      "type": "function"
    }
  ],
  "bytecode": "0x60806040526040518060400160405280600381526020017f646f670000000000000000000000000000000000000000000000000000000000815250600190816200004a9190620003e9565b506040518060400160405280600281526020017f444700000000000000000000000000000000000000000000000000000000000081525060029081620000919190620003e9565b506012600360006101000a81548160ff021916908360ff160217905550600360009054906101000a900460ff16600a620000cc919062000660565b6103e8620000db9190620006b1565b600455348015620000eb57600080fd5b506040516200105d3803806200105d833981810160405281019062000111919062000860565b6004546000803373ffffffffffffffffffffffffffffffffffffffff1673ffffffffffffffffffffffffffffffffffffffff168152602001908152602001600020819055508060029081620001679190620003e9565b5050620008b1565b600081519050919050565b7f4e487b7100000000000000000000000000000000000000000000000000000000600052604160045260246000fd5b7f4e487b7100000000000000000000000000000000000000000000000000000000600052602260045260246000fd5b60006002820490506001821680620001f157607f821691505b602082108103620002075762000206620001a9565b5b50919050565b60008190508160005260206000209050919050565b60006020601f8301049050919050565b600082821b905092915050565b600060088302620002717fffffffffffffffffffffffffffffffffffffffffffffffffffffffffffffffff8262000232565b6200027d868362000232565b95508019841693508086168417925050509392505050565b6000819050919050565b6000819050919050565b6000620002ca620002c4620002be8462000295565b6200029f565b62000295565b9050919050565b6000819050919050565b620002e683620002a9565b620002fe620002f582620002d1565b8484546200023f565b825550505050565b600090565b6200031562000306565b62000322818484620002db565b505050565b5b818110156200034a576200033e6000826200030b565b60018101905062000328565b5050565b601f821115620003995762000363816200020d565b6200036e8462000222565b810160208510156200037e578190505b620003966200038d8562000222565b83018262000327565b50505b505050565b600082821c905092915050565b6000620003be600019846008026200039e565b1980831691505092915050565b6000620003d98383620003ab565b9150826002028217905092915050565b620003f4826200016f565b67ffffffffffffffff81111562000410576200040f6200017a565b5b6200041c8254620001d8565b620004298282856200034e565b600060209050601f8311600181146200046157600084156200044c578287015190505b620004588582620003cb565b865550620004c8565b601f19841662000471866200020d565b60005b828110156200049b5784890151825560018201915060208501945060208101905062000474565b86831015620004bb5784890151620004b7601f891682620003ab565b8355505b6001600288020188555050505b505050505050565b7f4e487b7100000000000000000000000000000000000000000000000000000000600052601160045260246000fd5b60008160011c9050919050565b6000808291508390505b60018511156200055e57808604811115620005365762000535620004d0565b5b6001851615620005465780820291505b80810290506200055685620004ff565b945062000516565b94509492505050565b6000826200057957600190506200064c565b816200058957600090506200064c565b8160018114620005a25760028114620005ad57620005e3565b60019150506200064c565b60ff841115620005c257620005c1620004d0565b5b8360020a915084821115620005dc57620005db620004d0565b5b506200064c565b5060208310610133831016604e8410600b84101617156200061d5782820a905083811115620006175762000616620004d0565b5b6200064c565b6200062c84848460016200050c565b92509050818404811115620006465762000645620004d0565b5b81810290505b9392505050565b600060ff82169050919050565b60006200066d8262000295565b91506200067a8362000653565b9250620006a97fffffffffffffffffffffffffffffffffffffffffffffffffffffffffffffffff848462000567565b905092915050565b6000620006be8262000295565b9150620006cb8362000295565b9250828202620006db8162000295565b91508282048414831517620006f557620006f4620004d0565b5b5092915050565b6000604051905090565b600080fd5b600080fd5b600080fd5b600080fd5b6000601f19601f8301169050919050565b62000736826200071a565b810181811067ffffffffffffffff821117156200075857620007576200017a565b5b80604052505050565b60006200076d620006fc565b90506200077b82826200072b565b919050565b600067ffffffffffffffff8211156200079e576200079d6200017a565b5b620007a9826200071a565b9050602081019050919050565b60005b83811015620007d6578082015181840152602081019050620007b9565b60008484015250505050565b6000620007f9620007f38462000780565b62000761565b90508281526020810184848401111562000818576200081762000715565b5b62000825848285620007b6565b509392505050565b600082601f83011262000845576200084462000710565b5b815162000857848260208601620007e2565b91505092915050565b60006020828403121562000879576200087862000706565b5b600082015167ffffffffffffffff8111156200089a57620008996200070b565b5b620008a8848285016200082d565b91505092915050565b61079c80620008c16000396000f3fe608060405234801561001057600080fd5b506004361061007d5760003560e01c8063313ce5671161005b578063313ce567146100ee57806370a082311461010c57806395d89b411461013c578063a9059cbb1461015a5761007d565b806306fdde031461008257806318160ddd146100a057806327e235e3146100be575b600080fd5b61008a61018a565b60405161009791906104b0565b60405180910390f35b6100a8610218565b6040516100b591906104eb565b60405180910390f35b6100d860048036038101906100d39190610569565b61021e565b6040516100e591906104eb565b60405180910390f35b6100f6610236565b60405161010391906105b2565b60405180910390f35b61012660048036038101906101219190610569565b610249565b60405161013391906104eb565b60405180910390f35b610144610291565b60405161015191906104b0565b60405180910390f35b610174600480360381019061016f91906105f9565b61031f565b6040516101819190610654565b60405180910390f35b600180546101979061069e565b80601f01602080910402602001604051908101604052809291908181526020018280546101c39061069e565b80156102105780601f106101e557610100808354040283529160200191610210565b820191906000526020600020905b8154815290600101906020018083116101f357829003601f168201915b505050505081565b60045481565b60006020528060005260406000206000915090505481565b600360009054906101000a900460ff1681565b60008060008373ffffffffffffffffffffffffffffffffffffffff1673ffffffffffffffffffffffffffffffffffffffff168152602001908152602001600020549050919050565b6002805461029e9061069e565b80601f01602080910402602001604051908101604052809291908181526020018280546102ca9061069e565b80156103175780601f106102ec57610100808354040283529160200191610317565b820191906000526020600020905b8154815290600101906020018083116102fa57829003601f168201915b505050505081565b6000816000803373ffffffffffffffffffffffffffffffffffffffff1673ffffffffffffffffffffffffffffffffffffffff16815260200190815260200160002054101561036c57600080fd5b816000803373ffffffffffffffffffffffffffffffffffffffff1673ffffffffffffffffffffffffffffffffffffffff16815260200190815260200160002060008282546103ba91906106fe565b92505081905550816000808573ffffffffffffffffffffffffffffffffffffffff1673ffffffffffffffffffffffffffffffffffffffff168152602001908152602001600020600082825461040f9190610732565b925050819055506001905092915050565b600081519050919050565b600082825260208201905092915050565b60005b8381101561045a57808201518184015260208101905061043f565b60008484015250505050565b6000601f19601f8301169050919050565b600061048282610420565b61048c818561042b565b935061049c81856020860161043c565b6104a581610466565b840191505092915050565b600060208201905081810360008301526104ca8184610477565b905092915050565b6000819050919050565b6104e5816104d2565b82525050565b600060208201905061050060008301846104dc565b92915050565b600080fd5b600073ffffffffffffffffffffffffffffffffffffffff82169050919050565b60006105368261050b565b9050919050565b6105468161052b565b811461055157600080fd5b50565b6000813590506105638161053d565b92915050565b60006020828403121561057f5761057e610506565b5b600061058d84828501610554565b91505092915050565b600060ff82169050919050565b6105ac81610596565b82525050565b60006020820190506105c760008301846105a3565b92915050565b6105d6816104d2565b81146105e157600080fd5b50565b6000813590506105f3816105cd565b92915050565b600080604083850312156106105761060f610506565b5b600061061e85828601610554565b925050602061062f858286016105e4565b9150509250929050565b60008115159050919050565b61064e81610639565b82525050565b60006020820190506106696000830184610645565b92915050565b7f4e487b7100000000000000000000000000000000000000000000000000000000600052602260045260246000fd5b600060028204905060018216806106b657607f821691505b6020821081036106c9576106c861066f565b5b50919050565b7f4e487b7100000000000000000000000000000000000000000000000000000000600052601160045260246000fd5b6000610709826104d2565b9150610714836104d2565b925082820390508181111561072c5761072b6106cf565b5b92915050565b600061073d826104d2565b9150610748836104d2565b92508282019050808211156107605761075f6106cf565b5b9291505056fea2646970667358221220eba2a2a791087ecba1b3676b7f12b6edd67a1c7abb7780ca8d7d1bad3bf69bf964736f6c63430008130033",
  "immutableReferences": {},
  "source": "// SPDX-License-Identifier: MIT\r\npragma solidity ^0.8.18;\r\n\r\ncontract TestToken {\r\n  mapping(address => uint256) public balances;\r\n\r\n  string public name = \"dog\";\r\n  string public symbol = \"DG\";\r\n  uint8 public decimals = 18;\r\n  uint public totalSupply = 1000 * 10 ** decimals;\r\n\r\n  constructor(string memory _symbol) {\r\n    balances[msg.sender] = totalSupply;\r\n    symbol = _symbol;\r\n  }\r\n\r\n  function balanceOf(address _owner) public view returns (uint balance) {\r\n    return balances[_owner];\r\n  }\r\n\r\n  function transfer(address _to, uint _value) public returns (bool success) {\r\n    require(balances[msg.sender] >= _value);\r\n    balances[msg.sender] -= _value;\r\n    balances[_to] += _value;\r\n    return true;\r\n  }\r\n}\r\n",
  "sourcePath": "C:\\Users\\ghkdw\\OneDrive\\\\GitHub\\ForPractice\\BlockChain7\\230306\\contracts\\testToken.sol",
  "compiler": {
    "name": "solc",
    "version": "0.8.19+commit.7dd6d404.Emscripten.clang"
  },
  "schemaVersion": "3.4.13",
  "updatedAt": "2023-03-06T05:27:20.195Z",
  "networkType": "ethereum",
  "devdoc": {
    "kind": "dev",
    "methods": {},
    "version": 1
  },
  "userdoc": {
    "kind": "user",
    "methods": {},
    "version": 1
  }
}