{
  "contractName": "InputCalc",
  "abi": [
    {
      "inputs": [],
      "stateMutability": "nonpayable",
      "type": "constructor"
    },
    {
      "inputs": [],
      "name": "getResult",
      "outputs": [
        {
          "internalType": "int256",
          "name": "",
          "type": "int256"
        }
      ],
      "stateMutability": "view",
      "type": "function"
    },
    {
      "inputs": [
        {
          "internalType": "int256",
          "name": "_input",
          "type": "int256"
        }
      ],
      "name": "add",
      "outputs": [],
      "stateMutability": "nonpayable",
      "type": "function"
    },
    {
      "inputs": [
        {
          "internalType": "int256",
          "name": "_input",
          "type": "int256"
        }
      ],
      "name": "minus",
      "outputs": [],
      "stateMutability": "nonpayable",
      "type": "function"
    },
    {
      "inputs": [
        {
          "internalType": "int256",
          "name": "_input",
          "type": "int256"
        }
      ],
      "name": "multiply",
      "outputs": [],
      "stateMutability": "nonpayable",
      "type": "function"
    },
    {
      "inputs": [
        {
          "internalType": "int256",
          "name": "_input",
          "type": "int256"
        }
      ],
      "name": "division",
      "outputs": [],
      "stateMutability": "nonpayable",
      "type": "function"
    }
  ],
  "bytecode": "0x608060405234801561001057600080fd5b50600080819055506103ee806100276000396000f3fe608060405234801561001057600080fd5b50600436106100575760003560e01c80631df4f1441461005c5780636c398bb61461007857806387db03b714610094578063d5f716fe146100b0578063de292789146100cc575b600080fd5b6100766004803603810190610071919061019a565b6100ea565b005b610092600480360381019061008d919061019a565b610105565b005b6100ae60048036038101906100a9919061019a565b610120565b005b6100ca60048036038101906100c5919061019a565b61013b565b005b6100d4610156565b6040516100e191906101d6565b60405180910390f35b806000808282546100fb9190610220565b9250508190555050565b806000808282546101169190610298565b9250508190555050565b8060008082825461013191906102db565b9250508190555050565b8060008082825461014c919061034e565b9250508190555050565b60008054905090565b600080fd5b6000819050919050565b61017781610164565b811461018257600080fd5b50565b6000813590506101948161016e565b92915050565b6000602082840312156101b0576101af61015f565b5b60006101be84828501610185565b91505092915050565b6101d081610164565b82525050565b60006020820190506101eb60008301846101c7565b92915050565b7f4e487b7100000000000000000000000000000000000000000000000000000000600052601160045260246000fd5b600061022b82610164565b915061023683610164565b925082820261024481610164565b91507f8000000000000000000000000000000000000000000000000000000000000000841460008412161561027c5761027b6101f1565b5b8282058414831517610291576102906101f1565b5b5092915050565b60006102a382610164565b91506102ae83610164565b92508282039050818112600084121682821360008512151617156102d5576102d46101f1565b5b92915050565b60006102e682610164565b91506102f183610164565b925082820190508281121560008312168382126000841215161715610319576103186101f1565b5b92915050565b7f4e487b7100000000000000000000000000000000000000000000000000000000600052601260045260246000fd5b600061035982610164565b915061036483610164565b9250826103745761037361031f565b5b600160000383147f8000000000000000000000000000000000000000000000000000000000000000831416156103ad576103ac6101f1565b5b82820590509291505056fea2646970667358221220722302f16e357d22c1bb6f902dec7ef5f3e88da68c9bfc82f0dbb65fd3ae00b764736f6c63430008120033",
  "immutableReferences": {},
  "source": "// SPDX-License-Identifier: MIT\r\npragma solidity ^0.8.18;\r\n\r\ncontract InputCalc{\r\n    int private result;\r\n\r\n    constructor(){\r\n        result = 0;\r\n    }\r\n\r\n    function getResult() public view returns (int){ \r\n        return result;\r\n    }   \r\n   function add(int _input) public {\r\n    result += _input;\r\n  }\r\n\r\n  function minus(int _input) public {\r\n    result -= _input;\r\n  }\r\n   function multiply(int _input) public {\r\n    result *= _input;\r\n  }\r\n\r\n  function division(int _input) public {\r\n    result /= _input;\r\n  }\r\n}",
  "sourcePath": "C:\\Users\\ghkdw\\OneDrive\\\\GitHub\\ForPractice\\BlockChain7\\230302\\truffle-test\\contracts\\InputCalc.sol",
  "compiler": {
    "name": "solc",
    "version": "0.8.18+commit.87f61d96.Emscripten.clang"
  },
  "schemaVersion": "3.4.12",
  "updatedAt": "2023-03-02T11:08:27.598Z",
  "devdoc": {
    "kind": "dev",
    "methods": {},
    "version": 1
  },
  "userdoc": {
    "kind": "user",
    "methods": {},
    "version": 1
  }
}